{
  "contractName": "Test",
  "abi": [
    {
      "inputs": [],
      "stateMutability": "nonpayable",
      "type": "constructor"
    },
    {
      "anonymous": false,
      "inputs": [
        {
          "indexed": true,
          "internalType": "address",
          "name": "_owner",
          "type": "address"
        },
        {
          "indexed": true,
          "internalType": "address",
          "name": "_approved",
          "type": "address"
        },
        {
          "indexed": true,
          "internalType": "uint256",
          "name": "tokenId",
          "type": "uint256"
        }
      ],
      "name": "Approval",
      "type": "event"
    },
    {
      "anonymous": false,
      "inputs": [
        {
          "indexed": true,
          "internalType": "address",
          "name": "_owner",
          "type": "address"
        },
        {
          "indexed": true,
          "internalType": "address",
          "name": "_operator",
          "type": "address"
        },
        {
          "indexed": false,
          "internalType": "bool",
          "name": "_approved",
          "type": "bool"
        }
      ],
      "name": "ApprovalForAll",
      "type": "event"
    },
    {
      "anonymous": false,
      "inputs": [
        {
          "indexed": true,
          "internalType": "address",
          "name": "account",
          "type": "address"
        }
      ],
      "name": "MinterAdded",
      "type": "event"
    },
    {
      "anonymous": false,
      "inputs": [
        {
          "indexed": true,
          "internalType": "address",
          "name": "account",
          "type": "address"
        }
      ],
      "name": "MinterRemoved",
      "type": "event"
    },
    {
      "anonymous": false,
      "inputs": [
        {
          "indexed": true,
          "internalType": "address",
          "name": "_from",
          "type": "address"
        },
        {
          "indexed": true,
          "internalType": "address",
          "name": "_to",
          "type": "address"
        },
        {
          "indexed": true,
          "internalType": "uint256",
          "name": "_tokenId",
          "type": "uint256"
        }
      ],
      "name": "Transfer",
      "type": "event"
    },
    {
      "inputs": [
        {
          "internalType": "address",
          "name": "account",
          "type": "address"
        }
      ],
      "name": "addMinter",
      "outputs": [],
      "stateMutability": "nonpayable",
      "type": "function"
    },
    {
      "inputs": [
        {
          "internalType": "address",
          "name": "account",
          "type": "address"
        }
      ],
      "name": "isMinter",
      "outputs": [
        {
          "internalType": "bool",
          "name": "",
          "type": "bool"
        }
      ],
      "stateMutability": "view",
      "type": "function",
      "constant": true
    },
    {
      "inputs": [],
      "name": "renounceMinter",
      "outputs": [],
      "stateMutability": "nonpayable",
      "type": "function"
    },
    {
      "inputs": [],
      "name": "getBaseURI",
      "outputs": [
        {
          "internalType": "string",
          "name": "",
          "type": "string"
        }
      ],
      "stateMutability": "view",
      "type": "function",
      "constant": true
    },
    {
      "inputs": [
        {
          "internalType": "string",
          "name": "_newBaseURI",
          "type": "string"
        }
      ],
      "name": "setBaseURI",
      "outputs": [],
      "stateMutability": "nonpayable",
      "type": "function"
    },
    {
      "inputs": [
        {
          "internalType": "uint256",
          "name": "tokenId",
          "type": "uint256"
        }
      ],
      "name": "getTokenURI",
      "outputs": [
        {
          "internalType": "string",
          "name": "",
          "type": "string"
        }
      ],
      "stateMutability": "view",
      "type": "function",
      "constant": true
    },
    {
      "inputs": [],
      "name": "getOwnedTokenCount",
      "outputs": [
        {
          "components": [
            {
              "internalType": "uint256",
              "name": "value",
              "type": "uint256"
            }
          ],
          "internalType": "struct Counters.Counter",
          "name": "",
          "type": "tuple"
        }
      ],
      "stateMutability": "view",
      "type": "function",
      "constant": true
    },
    {
      "inputs": [
        {
          "internalType": "address",
          "name": "_owner",
          "type": "address"
        }
      ],
      "name": "balanceOf",
      "outputs": [
        {
          "internalType": "uint256",
          "name": "",
          "type": "uint256"
        }
      ],
      "stateMutability": "view",
      "type": "function",
      "constant": true
    },
    {
      "inputs": [
        {
          "internalType": "uint256",
          "name": "_tokenId",
          "type": "uint256"
        }
      ],
      "name": "ownerOf",
      "outputs": [
        {
          "internalType": "address",
          "name": "",
          "type": "address"
        }
      ],
      "stateMutability": "view",
      "type": "function",
      "constant": true
    },
    {
      "inputs": [
        {
          "internalType": "address",
          "name": "_from",
          "type": "address"
        },
        {
          "internalType": "address",
          "name": "_to",
          "type": "address"
        },
        {
          "internalType": "uint256",
          "name": "_tokenId",
          "type": "uint256"
        }
      ],
      "name": "safeTransferFrom",
      "outputs": [],
      "stateMutability": "payable",
      "type": "function",
      "payable": true
    },
    {
      "inputs": [
        {
          "internalType": "address",
          "name": "_from",
          "type": "address"
        },
        {
          "internalType": "address",
          "name": "_to",
          "type": "address"
        },
        {
          "internalType": "uint256",
          "name": "_tokenId",
          "type": "uint256"
        },
        {
          "internalType": "bytes",
          "name": "_data",
          "type": "bytes"
        }
      ],
      "name": "safeTransferFrom",
      "outputs": [],
      "stateMutability": "payable",
      "type": "function",
      "payable": true
    },
    {
      "inputs": [
        {
          "internalType": "address",
          "name": "_from",
          "type": "address"
        },
        {
          "internalType": "address",
          "name": "_to",
          "type": "address"
        },
        {
          "internalType": "uint256",
          "name": "_tokenId",
          "type": "uint256"
        }
      ],
      "name": "transferFrom",
      "outputs": [],
      "stateMutability": "payable",
      "type": "function",
      "payable": true
    },
    {
      "inputs": [
        {
          "internalType": "address",
          "name": "_approved",
          "type": "address"
        },
        {
          "internalType": "uint256",
          "name": "_tokenId",
          "type": "uint256"
        }
      ],
      "name": "approve",
      "outputs": [],
      "stateMutability": "payable",
      "type": "function",
      "payable": true
    },
    {
      "inputs": [
        {
          "internalType": "address",
          "name": "_operator",
          "type": "address"
        },
        {
          "internalType": "bool",
          "name": "_approved",
          "type": "bool"
        }
      ],
      "name": "setApprovalForAll",
      "outputs": [],
      "stateMutability": "nonpayable",
      "type": "function"
    },
    {
      "inputs": [
        {
          "internalType": "uint256",
          "name": "_tokenId",
          "type": "uint256"
        }
      ],
      "name": "getApproved",
      "outputs": [
        {
          "internalType": "address",
          "name": "",
          "type": "address"
        }
      ],
      "stateMutability": "view",
      "type": "function",
      "constant": true
    },
    {
      "inputs": [
        {
          "internalType": "address",
          "name": "_owner",
          "type": "address"
        },
        {
          "internalType": "address",
          "name": "_operator",
          "type": "address"
        }
      ],
      "name": "isApprovedForAll",
      "outputs": [
        {
          "internalType": "bool",
          "name": "",
          "type": "bool"
        }
      ],
      "stateMutability": "view",
      "type": "function",
      "constant": true
    },
    {
      "inputs": [
        {
          "internalType": "address",
          "name": "user",
          "type": "address"
        },
        {
          "internalType": "uint256",
          "name": "requestedCount",
          "type": "uint256"
        }
      ],
      "name": "airDropMint",
      "outputs": [],
      "stateMutability": "nonpayable",
      "type": "function"
    },
    {
      "inputs": [],
      "name": "withdraw",
      "outputs": [],
      "stateMutability": "nonpayable",
      "type": "function"
    },
    {
      "inputs": [
        {
          "internalType": "address",
          "name": "owner",
          "type": "address"
        }
      ],
      "name": "getTokenIds",
      "outputs": [
        {
          "internalType": "uint256[]",
          "name": "",
          "type": "uint256[]"
        }
      ],
      "stateMutability": "view",
      "type": "function",
      "constant": true
    },
    {
      "inputs": [
        {
          "internalType": "uint256",
          "name": "requestedCount",
          "type": "uint256"
        }
      ],
      "name": "publicMint",
      "outputs": [],
      "stateMutability": "payable",
      "type": "function",
      "payable": true
    },
    {
      "inputs": [],
      "name": "getSender",
      "outputs": [
        {
          "internalType": "address",
          "name": "",
          "type": "address"
        }
      ],
      "stateMutability": "view",
      "type": "function",
      "constant": true
    }
  ],
  "bytecode": "0x60806040523480156200001157600080fd5b5062000023336200004760201b60201c565b60018081905550610113600b8190555066038d7ea4c68000600c8190555062000340565b62000062816000620000a860201b620013341790919060201c565b8073ffffffffffffffffffffffffffffffffffffffff167f6ae172837ea30b801fbfcdd4108aa1d5bf8ff775444fd70256b44e6bf3dfc3f660405160405180910390a250565b620000ba82826200015b60201b60201c565b15620000fd576040517f08c379a0000000000000000000000000000000000000000000000000000000008152600401620000f49062000286565b60405180910390fd5b60018260000160008373ffffffffffffffffffffffffffffffffffffffff1673ffffffffffffffffffffffffffffffffffffffff16815260200190815260200160002060006101000a81548160ff0219169083151502179055505050565b60008073ffffffffffffffffffffffffffffffffffffffff168273ffffffffffffffffffffffffffffffffffffffff1603620001ce576040517f08c379a0000000000000000000000000000000000000000000000000000000008152600401620001c5906200031e565b60405180910390fd5b8260000160008373ffffffffffffffffffffffffffffffffffffffff1673ffffffffffffffffffffffffffffffffffffffff16815260200190815260200160002060009054906101000a900460ff16905092915050565b600082825260208201905092915050565b7f526f6c65733a206163636f756e7420616c72656164792068617320726f6c6500600082015250565b60006200026e601f8362000225565b91506200027b8262000236565b602082019050919050565b60006020820190508181036000830152620002a1816200025f565b9050919050565b7f526f6c65733a206163636f756e7420697320746865207a65726f20616464726560008201527f7373000000000000000000000000000000000000000000000000000000000000602082015250565b60006200030660228362000225565b91506200031382620002a8565b604082019050919050565b600060208201905081810360008301526200033981620002f7565b9050919050565b61399380620003506000396000f3fe60806040526004361061012a5760003560e01c80636352211e116100ab578063986502751161006f57806398650275146103a6578063a22cb465146103bd578063aa271e1a146103e6578063b88d4fde14610423578063d004b0361461043f578063e985e9c51461047c5761012a565b80636352211e146102af57806370a08231146102ec578063714c53981461032957806375a1ed0814610354578063983b2d561461037d5761012a565b80633bb3a24d116100f25780633bb3a24d146101eb5780633ccfd60b1461022857806342842e0e1461023f57806355f804b31461025b5780635e01eb5a146102845761012a565b8063081812fc1461012f578063095ea7b31461016c5780631c4524f61461018857806323b872dd146101b35780632db11544146101cf575b600080fd5b34801561013b57600080fd5b5061015660048036038101906101519190612147565b6104b9565b60405161016391906121b5565b60405180910390f35b610186600480360381019061018191906121fc565b61053e565b005b34801561019457600080fd5b5061019d6107d3565b6040516101aa9190612267565b60405180910390f35b6101cd60048036038101906101c89190612282565b610834565b005b6101e960048036038101906101e49190612147565b61088d565b005b3480156101f757600080fd5b50610212600480360381019061020d9190612147565b610aa1565b60405161021f919061236e565b60405180910390f35b34801561023457600080fd5b5061023d610b41565b005b61025960048036038101906102549190612282565b610be9565b005b34801561026757600080fd5b50610282600480360381019061027d91906124c5565b610ccc565b005b34801561029057600080fd5b50610299610d2e565b6040516102a691906121b5565b60405180910390f35b3480156102bb57600080fd5b506102d660048036038101906102d19190612147565b610d36565b6040516102e391906121b5565b60405180910390f35b3480156102f857600080fd5b50610313600480360381019061030e919061250e565b610de7565b604051610320919061254a565b60405180910390f35b34801561033557600080fd5b5061033e610ea5565b60405161034b919061236e565b60405180910390f35b34801561036057600080fd5b5061037b600480360381019061037691906121fc565b610f37565b005b34801561038957600080fd5b506103a4600480360381019061039f919061250e565b61100c565b005b3480156103b257600080fd5b506103bb611060565b005b3480156103c957600080fd5b506103e460048036038101906103df919061259d565b61106b565b005b3480156103f257600080fd5b5061040d6004803603810190610408919061250e565b611177565b60405161041a91906125ec565b60405180910390f35b61043d600480360381019061043891906126a8565b611194565b005b34801561044b57600080fd5b506104666004803603810190610461919061250e565b611209565b60405161047391906127da565b60405180910390f35b34801561048857600080fd5b506104a3600480360381019061049e91906127fc565b6112a0565b6040516104b091906125ec565b60405180910390f35b60006104c4826113dc565b610503576040517f08c379a00000000000000000000000000000000000000000000000000000000081526004016104fa906128ae565b60405180910390fd5b6003600083815260200190815260200160002060009054906101000a900473ffffffffffffffffffffffffffffffffffffffff169050919050565b60003073ffffffffffffffffffffffffffffffffffffffff16636352211e836040518263ffffffff1660e01b8152600401610579919061254a565b602060405180830381865afa158015610596573d6000803e3d6000fd5b505050506040513d601f19601f820116820180604052508101906105ba91906128e3565b90508073ffffffffffffffffffffffffffffffffffffffff168373ffffffffffffffffffffffffffffffffffffffff160361062a576040517f08c379a00000000000000000000000000000000000000000000000000000000081526004016106219061295c565b60405180910390fd5b60003390508073ffffffffffffffffffffffffffffffffffffffff168273ffffffffffffffffffffffffffffffffffffffff1614806106e157503073ffffffffffffffffffffffffffffffffffffffff1663e985e9c583836040518363ffffffff1660e01b815260040161069f92919061297c565b602060405180830381865afa1580156106bc573d6000803e3d6000fd5b505050506040513d601f19601f820116820180604052508101906106e091906129ba565b5b610720576040517f08c379a000000000000000000000000000000000000000000000000000000000815260040161071790612a59565b60405180910390fd5b836003600085815260200190815260200160002060006101000a81548173ffffffffffffffffffffffffffffffffffffffff021916908373ffffffffffffffffffffffffffffffffffffffff160217905550828473ffffffffffffffffffffffffffffffffffffffff168373ffffffffffffffffffffffffffffffffffffffff167f8c5be1e5ebec7d5bd14f71427d1e84f3dd0314c0f7b2291e5b200ac8c7c3b92560405160405180910390a450505050565b6107db612047565b600460003373ffffffffffffffffffffffffffffffffffffffff1673ffffffffffffffffffffffffffffffffffffffff168152602001908152602001600020604051806020016040529081600082015481525050905090565b61083e338261144e565b61087d576040517f08c379a000000000000000000000000000000000000000000000000000000000815260040161087490612aeb565b60405180910390fd5b610888838383611680565b505050565b6000339050436108e7600954600860008573ffffffffffffffffffffffffffffffffffffffff1673ffffffffffffffffffffffffffffffffffffffff168152602001908152602001600020546119d190919063ffffffff16565b10610927576040517f08c379a000000000000000000000000000000000000000000000000000000000815260040161091e90612b57565b60405180910390fd5b600a5443101561096c576040517f08c379a000000000000000000000000000000000000000000000000000000000815260040161096390612bc3565b60405180910390fd5b60008211801561097e5750600b548211155b6109bd576040517f08c379a00000000000000000000000000000000000000000000000000000000081526004016109b490612c55565b60405180910390fd5b6109d282600c54611a2f90919063ffffffff16565b3414610a13576040517f08c379a0000000000000000000000000000000000000000000000000000000008152600401610a0a90612cc1565b60405180910390fd5b60005b82811015610a5857610a2a82600154611aa9565b610a3f600180546119d190919063ffffffff16565b6001819055508080610a5090612d10565b915050610a16565b5043600860008373ffffffffffffffffffffffffffffffffffffffff1673ffffffffffffffffffffffffffffffffffffffff168152602001908152602001600020819055505050565b6060610aac826113dc565b610aeb576040517f08c379a0000000000000000000000000000000000000000000000000000000008152600401610ae290612dca565b60405180910390fd5b6000610af5610ea5565b90506000815103610b185760405180602001604052806000815250915050610b3c565b80604051602001610b299190612ebe565b6040516020818303038152906040529150505b919050565b610b4a33611177565b610b89576040517f08c379a0000000000000000000000000000000000000000000000000000000008152600401610b8090612f5d565b60405180910390fd5b3373ffffffffffffffffffffffffffffffffffffffff166108fc3073ffffffffffffffffffffffffffffffffffffffff16319081150290604051600060405180830381858888f19350505050158015610be6573d6000803e3d6000fd5b50565b600073ffffffffffffffffffffffffffffffffffffffff168273ffffffffffffffffffffffffffffffffffffffff1603610c58576040517f08c379a0000000000000000000000000000000000000000000000000000000008152600401610c4f90612fc9565b60405180910390fd5b3073ffffffffffffffffffffffffffffffffffffffff1663b88d4fde8484846040518463ffffffff1660e01b8152600401610c9593929190613020565b600060405180830381600087803b158015610caf57600080fd5b505af1158015610cc3573d6000803e3d6000fd5b50505050505050565b610cd533611177565b610d14576040517f08c379a0000000000000000000000000000000000000000000000000000000008152600401610d0b90612f5d565b60405180910390fd5b80600d9080519060200190610d2a92919061205a565b5050565b600033905090565b6000806002600084815260200190815260200160002060009054906101000a900473ffffffffffffffffffffffffffffffffffffffff169050600073ffffffffffffffffffffffffffffffffffffffff168173ffffffffffffffffffffffffffffffffffffffff1603610dde576040517f08c379a0000000000000000000000000000000000000000000000000000000008152600401610dd5906130dc565b60405180910390fd5b80915050919050565b60008073ffffffffffffffffffffffffffffffffffffffff168273ffffffffffffffffffffffffffffffffffffffff1603610e57576040517f08c379a0000000000000000000000000000000000000000000000000000000008152600401610e4e9061316e565b60405180910390fd5b610e9e600460008473ffffffffffffffffffffffffffffffffffffffff1673ffffffffffffffffffffffffffffffffffffffff168152602001908152602001600020611d2d565b9050919050565b6060600d8054610eb4906131bd565b80601f0160208091040260200160405190810160405280929190818152602001828054610ee0906131bd565b8015610f2d5780601f10610f0257610100808354040283529160200191610f2d565b820191906000526020600020905b815481529060010190602001808311610f1057829003601f168201915b5050505050905090565b610f4033611177565b610f7f576040517f08c379a0000000000000000000000000000000000000000000000000000000008152600401610f7690612f5d565b60405180910390fd5b60008111610fc2576040517f08c379a0000000000000000000000000000000000000000000000000000000008152600401610fb99061323a565b60405180910390fd5b60005b8181101561100757610fd983600154611aa9565b610fee600180546119d190919063ffffffff16565b6001819055508080610fff90612d10565b915050610fc5565b505050565b61101533611177565b611054576040517f08c379a000000000000000000000000000000000000000000000000000000000815260040161104b90612f5d565b60405180910390fd5b61105d81611d3b565b50565b61106933611d95565b565b60003390508073ffffffffffffffffffffffffffffffffffffffff168373ffffffffffffffffffffffffffffffffffffffff16036110de576040517f08c379a00000000000000000000000000000000000000000000000000000000081526004016110d5906132a6565b60405180910390fd5b81600760008373ffffffffffffffffffffffffffffffffffffffff1673ffffffffffffffffffffffffffffffffffffffff16815260200190815260200160002060008573ffffffffffffffffffffffffffffffffffffffff1673ffffffffffffffffffffffffffffffffffffffff16815260200190815260200160002060006101000a81548160ff021916908315150217905550505050565b600061118d826000611def90919063ffffffff16565b9050919050565b3073ffffffffffffffffffffffffffffffffffffffff166323b872dd8585856040518463ffffffff1660e01b81526004016111d1939291906132c6565b600060405180830381600087803b1580156111eb57600080fd5b505af11580156111ff573d6000803e3d6000fd5b5050505050505050565b6060600560008373ffffffffffffffffffffffffffffffffffffffff1673ffffffffffffffffffffffffffffffffffffffff16815260200190815260200160002080548060200260200160405190810160405280929190818152602001828054801561129457602002820191906000526020600020905b815481526020019060010190808311611280575b50505050509050919050565b6000600760008473ffffffffffffffffffffffffffffffffffffffff1673ffffffffffffffffffffffffffffffffffffffff16815260200190815260200160002060008373ffffffffffffffffffffffffffffffffffffffff1673ffffffffffffffffffffffffffffffffffffffff16815260200190815260200160002060009054906101000a900460ff16905092915050565b61133e8282611def565b1561137e576040517f08c379a000000000000000000000000000000000000000000000000000000000815260040161137590613349565b60405180910390fd5b60018260000160008373ffffffffffffffffffffffffffffffffffffffff1673ffffffffffffffffffffffffffffffffffffffff16815260200190815260200160002060006101000a81548160ff0219169083151502179055505050565b6000806002600084815260200190815260200160002060009054906101000a900473ffffffffffffffffffffffffffffffffffffffff169050600073ffffffffffffffffffffffffffffffffffffffff168173ffffffffffffffffffffffffffffffffffffffff161415915050919050565b6000611459826113dc565b611498576040517f08c379a000000000000000000000000000000000000000000000000000000000815260040161148f906133db565b60405180910390fd5b60003073ffffffffffffffffffffffffffffffffffffffff16636352211e846040518263ffffffff1660e01b81526004016114d3919061254a565b602060405180830381865afa1580156114f0573d6000803e3d6000fd5b505050506040513d601f19601f8201168201806040525081019061151491906128e3565b90508073ffffffffffffffffffffffffffffffffffffffff168473ffffffffffffffffffffffffffffffffffffffff1614806115f457508373ffffffffffffffffffffffffffffffffffffffff163073ffffffffffffffffffffffffffffffffffffffff1663081812fc856040518263ffffffff1660e01b815260040161159b919061254a565b602060405180830381865afa1580156115b8573d6000803e3d6000fd5b505050506040513d601f19601f820116820180604052508101906115dc91906128e3565b73ffffffffffffffffffffffffffffffffffffffff16145b8061167757503073ffffffffffffffffffffffffffffffffffffffff1663e985e9c582866040518363ffffffff1660e01b815260040161163592919061297c565b602060405180830381865afa158015611652573d6000803e3d6000fd5b505050506040513d601f19601f8201168201806040525081019061167691906129ba565b5b91505092915050565b8273ffffffffffffffffffffffffffffffffffffffff163073ffffffffffffffffffffffffffffffffffffffff16636352211e836040518263ffffffff1660e01b81526004016116d0919061254a565b602060405180830381865afa1580156116ed573d6000803e3d6000fd5b505050506040513d601f19601f8201168201806040525081019061171191906128e3565b73ffffffffffffffffffffffffffffffffffffffff1614611767576040517f08c379a000000000000000000000000000000000000000000000000000000000815260040161175e9061346d565b60405180910390fd5b600073ffffffffffffffffffffffffffffffffffffffff168273ffffffffffffffffffffffffffffffffffffffff16036117d6576040517f08c379a00000000000000000000000000000000000000000000000000000000081526004016117cd906134ff565b60405180910390fd5b600073ffffffffffffffffffffffffffffffffffffffff166003600083815260200190815260200160002060009054906101000a900473ffffffffffffffffffffffffffffffffffffffff1673ffffffffffffffffffffffffffffffffffffffff16146118915760006003600083815260200190815260200160002060006101000a81548173ffffffffffffffffffffffffffffffffffffffff021916908373ffffffffffffffffffffffffffffffffffffffff1602179055505b6118d8600460008573ffffffffffffffffffffffffffffffffffffffff1673ffffffffffffffffffffffffffffffffffffffff168152602001908152602001600020611eb6565b61191f600460008473ffffffffffffffffffffffffffffffffffffffff1673ffffffffffffffffffffffffffffffffffffffff168152602001908152602001600020611ed9565b816002600083815260200190815260200160002060006101000a81548173ffffffffffffffffffffffffffffffffffffffff021916908373ffffffffffffffffffffffffffffffffffffffff160217905550808273ffffffffffffffffffffffffffffffffffffffff168473ffffffffffffffffffffffffffffffffffffffff167fddf252ad1be2c89b69c2b068fc378daa952ba7f163c4a11628f55a4df523b3ef60405160405180910390a4505050565b60008082846119e0919061351f565b905083811015611a25576040517f08c379a0000000000000000000000000000000000000000000000000000000008152600401611a1c906135c1565b60405180910390fd5b8091505092915050565b6000808303611a415760009050611aa3565b60008284611a4f91906135e1565b9050828482611a5e919061366a565b14611a9e576040517f08c379a0000000000000000000000000000000000000000000000000000000008152600401611a959061370d565b60405180910390fd5b809150505b92915050565b600073ffffffffffffffffffffffffffffffffffffffff168273ffffffffffffffffffffffffffffffffffffffff1603611b18576040517f08c379a0000000000000000000000000000000000000000000000000000000008152600401611b0f90613779565b60405180910390fd5b611b21816113dc565b15611b61576040517f08c379a0000000000000000000000000000000000000000000000000000000008152600401611b58906137e5565b60405180910390fd5b816002600083815260200190815260200160002060006101000a81548173ffffffffffffffffffffffffffffffffffffffff021916908373ffffffffffffffffffffffffffffffffffffffff160217905550611bfa600460008473ffffffffffffffffffffffffffffffffffffffff1673ffffffffffffffffffffffffffffffffffffffff168152602001908152602001600020611ed9565b600560008373ffffffffffffffffffffffffffffffffffffffff1673ffffffffffffffffffffffffffffffffffffffff168152602001908152602001600020819080600181540180825580915050600190039060005260206000200160009091909190915055611cb66001600560008573ffffffffffffffffffffffffffffffffffffffff1673ffffffffffffffffffffffffffffffffffffffff16815260200190815260200160002080549050611ef890919063ffffffff16565b6006600083815260200190815260200160002081905550808273ffffffffffffffffffffffffffffffffffffffff16600073ffffffffffffffffffffffffffffffffffffffff167fddf252ad1be2c89b69c2b068fc378daa952ba7f163c4a11628f55a4df523b3ef60405160405180910390a45050565b600081600001549050919050565b611d4f81600061133490919063ffffffff16565b8073ffffffffffffffffffffffffffffffffffffffff167f6ae172837ea30b801fbfcdd4108aa1d5bf8ff775444fd70256b44e6bf3dfc3f660405160405180910390a250565b611da9816000611f4290919063ffffffff16565b8073ffffffffffffffffffffffffffffffffffffffff167fe94479a9f7e1952cc78f2d6baab678adc1b772d936c6583def489e524cb6669260405160405180910390a250565b60008073ffffffffffffffffffffffffffffffffffffffff168273ffffffffffffffffffffffffffffffffffffffff1603611e5f576040517f08c379a0000000000000000000000000000000000000000000000000000000008152600401611e5690613877565b60405180910390fd5b8260000160008373ffffffffffffffffffffffffffffffffffffffff1673ffffffffffffffffffffffffffffffffffffffff16815260200190815260200160002060009054906101000a900460ff16905092915050565b611ece60018260000154611ef890919063ffffffff16565b816000018190555050565b6001816000016000828254611eee919061351f565b9250508190555050565b6000611f3a83836040518060400160405280601e81526020017f536166654d6174683a207375627472616374696f6e206f766572666c6f770000815250611fe9565b905092915050565b611f4c8282611def565b611f8b576040517f08c379a0000000000000000000000000000000000000000000000000000000008152600401611f8290613909565b60405180910390fd5b60008260000160008373ffffffffffffffffffffffffffffffffffffffff1673ffffffffffffffffffffffffffffffffffffffff16815260200190815260200160002060006101000a81548160ff0219169083151502179055505050565b6000838311158290612031576040517f08c379a0000000000000000000000000000000000000000000000000000000008152600401612028919061236e565b60405180910390fd5b50828461203e9190613929565b90509392505050565b6040518060200160405280600081525090565b828054612066906131bd565b90600052602060002090601f01602090048101928261208857600085556120cf565b82601f106120a157805160ff19168380011785556120cf565b828001600101855582156120cf579182015b828111156120ce5782518255916020019190600101906120b3565b5b5090506120dc91906120e0565b5090565b5b808211156120f95760008160009055506001016120e1565b5090565b6000604051905090565b600080fd5b600080fd5b6000819050919050565b61212481612111565b811461212f57600080fd5b50565b6000813590506121418161211b565b92915050565b60006020828403121561215d5761215c612107565b5b600061216b84828501612132565b91505092915050565b600073ffffffffffffffffffffffffffffffffffffffff82169050919050565b600061219f82612174565b9050919050565b6121af81612194565b82525050565b60006020820190506121ca60008301846121a6565b92915050565b6121d981612194565b81146121e457600080fd5b50565b6000813590506121f6816121d0565b92915050565b6000806040838503121561221357612212612107565b5b6000612221858286016121e7565b925050602061223285828601612132565b9150509250929050565b61224581612111565b82525050565b602082016000820151612261600085018261223c565b50505050565b600060208201905061227c600083018461224b565b92915050565b60008060006060848603121561229b5761229a612107565b5b60006122a9868287016121e7565b93505060206122ba868287016121e7565b92505060406122cb86828701612132565b9150509250925092565b600081519050919050565b600082825260208201905092915050565b60005b8381101561230f5780820151818401526020810190506122f4565b8381111561231e576000848401525b50505050565b6000601f19601f8301169050919050565b6000612340826122d5565b61234a81856122e0565b935061235a8185602086016122f1565b61236381612324565b840191505092915050565b600060208201905081810360008301526123888184612335565b905092915050565b600080fd5b600080fd5b7f4e487b7100000000000000000000000000000000000000000000000000000000600052604160045260246000fd5b6123d282612324565b810181811067ffffffffffffffff821117156123f1576123f061239a565b5b80604052505050565b60006124046120fd565b905061241082826123c9565b919050565b600067ffffffffffffffff8211156124305761242f61239a565b5b61243982612324565b9050602081019050919050565b82818337600083830152505050565b600061246861246384612415565b6123fa565b90508281526020810184848401111561248457612483612395565b5b61248f848285612446565b509392505050565b600082601f8301126124ac576124ab612390565b5b81356124bc848260208601612455565b91505092915050565b6000602082840312156124db576124da612107565b5b600082013567ffffffffffffffff8111156124f9576124f861210c565b5b61250584828501612497565b91505092915050565b60006020828403121561252457612523612107565b5b6000612532848285016121e7565b91505092915050565b61254481612111565b82525050565b600060208201905061255f600083018461253b565b92915050565b60008115159050919050565b61257a81612565565b811461258557600080fd5b50565b60008135905061259781612571565b92915050565b600080604083850312156125b4576125b3612107565b5b60006125c2858286016121e7565b92505060206125d385828601612588565b9150509250929050565b6125e681612565565b82525050565b600060208201905061260160008301846125dd565b92915050565b600067ffffffffffffffff8211156126225761262161239a565b5b61262b82612324565b9050602081019050919050565b600061264b61264684612607565b6123fa565b90508281526020810184848401111561266757612666612395565b5b612672848285612446565b509392505050565b600082601f83011261268f5761268e612390565b5b813561269f848260208601612638565b91505092915050565b600080600080608085870312156126c2576126c1612107565b5b60006126d0878288016121e7565b94505060206126e1878288016121e7565b93505060406126f287828801612132565b925050606085013567ffffffffffffffff8111156127135761271261210c565b5b61271f8782880161267a565b91505092959194509250565b600081519050919050565b600082825260208201905092915050565b6000819050602082019050919050565b6000612763838361223c565b60208301905092915050565b6000602082019050919050565b60006127878261272b565b6127918185612736565b935061279c83612747565b8060005b838110156127cd5781516127b48882612757565b97506127bf8361276f565b9250506001810190506127a0565b5085935050505092915050565b600060208201905081810360008301526127f4818461277c565b905092915050565b6000806040838503121561281357612812612107565b5b6000612821858286016121e7565b9250506020612832858286016121e7565b9150509250929050565b7f544553543a20617070726f76656420717565727920666f72206e6f6e6578697360008201527f74656e7420746f6b656e00000000000000000000000000000000000000000000602082015250565b6000612898602a836122e0565b91506128a38261283c565b604082019050919050565b600060208201905081810360008301526128c78161288b565b9050919050565b6000815190506128dd816121d0565b92915050565b6000602082840312156128f9576128f8612107565b5b6000612907848285016128ce565b91505092915050565b7f544553543a20617070726f76616c20746f2063757272656e74206f776e657200600082015250565b6000612946601f836122e0565b915061295182612910565b602082019050919050565b6000602082019050818103600083015261297581612939565b9050919050565b600060408201905061299160008301856121a6565b61299e60208301846121a6565b9392505050565b6000815190506129b481612571565b92915050565b6000602082840312156129d0576129cf612107565b5b60006129de848285016129a5565b91505092915050565b7f544553543a20617070726f7665642063616c6c6572206973206e6f74206f776e60008201527f6572206e6f7220617070726f76656420666f7220616c6c000000000000000000602082015250565b6000612a436037836122e0565b9150612a4e826129e7565b604082019050919050565b60006020820190508181036000830152612a7281612a36565b9050919050565b7f544553543a207472616e737465722063616c6c6572206973206e6f74206f776e60008201527f6572206e6f7220617070726f7665640000000000000000000000000000000000602082015250565b6000612ad5602f836122e0565b9150612ae082612a79565b604082019050919050565b60006020820190508181036000830152612b0481612ac8565b9050919050565b7f426f74206973206e6f7420616c6c6f7765640000000000000000000000000000600082015250565b6000612b416012836122e0565b9150612b4c82612b0b565b602082019050919050565b60006020820190508181036000830152612b7081612b34565b9050919050565b7f4e6f742079657420737461727465640000000000000000000000000000000000600082015250565b6000612bad600f836122e0565b9150612bb882612b77565b602082019050919050565b60006020820190508181036000830152612bdc81612ba0565b9050919050565b7f546f6f206d616e79207265717565737473206f72207a65726f2072657175657360008201527f7400000000000000000000000000000000000000000000000000000000000000602082015250565b6000612c3f6021836122e0565b9150612c4a82612be3565b604082019050919050565b60006020820190508181036000830152612c6e81612c32565b9050919050565b7f4e6f7420656e6f756768204b6c61790000000000000000000000000000000000600082015250565b6000612cab600f836122e0565b9150612cb682612c75565b602082019050919050565b60006020820190508181036000830152612cda81612c9e565b9050919050565b7f4e487b7100000000000000000000000000000000000000000000000000000000600052601160045260246000fd5b6000612d1b82612111565b91507fffffffffffffffffffffffffffffffffffffffffffffffffffffffffffffffff8203612d4d57612d4c612ce1565b5b600182019050919050565b7f544553543a2055524920717565727920666f72206e6f6e6578697374656e742060008201527f746f6b656e000000000000000000000000000000000000000000000000000000602082015250565b6000612db46025836122e0565b9150612dbf82612d58565b604082019050919050565b60006020820190508181036000830152612de381612da7565b9050919050565b600081905092915050565b6000612e00826122d5565b612e0a8185612dea565b9350612e1a8185602086016122f1565b80840191505092915050565b7f3100000000000000000000000000000000000000000000000000000000000000600082015250565b6000612e5c600183612dea565b9150612e6782612e26565b600182019050919050565b7f2e6a736f6e000000000000000000000000000000000000000000000000000000600082015250565b6000612ea8600583612dea565b9150612eb382612e72565b600582019050919050565b6000612eca8284612df5565b9150612ed582612e4f565b9150612ee082612e9b565b915081905092915050565b7f4d696e746572526f6c653a2063616c6c657220646f6573206e6f74206861766560008201527f20746865204d696e74657220726f6c6500000000000000000000000000000000602082015250565b6000612f476030836122e0565b9150612f5282612eeb565b604082019050919050565b60006020820190508181036000830152612f7681612f3a565b9050919050565b7f544553543a20746f203d3d206164647265737328302900000000000000000000600082015250565b6000612fb36016836122e0565b9150612fbe82612f7d565b602082019050919050565b60006020820190508181036000830152612fe281612fa6565b9050919050565b600082825260208201905092915050565b50565b600061300a600083612fe9565b915061301582612ffa565b600082019050919050565b600060808201905061303560008301866121a6565b61304260208301856121a6565b61304f604083018461253b565b818103606083015261306081612ffd565b9050949350505050565b7f544553543a206f776e657220717565727920666f72206e6f6e6578697374656e60008201527f7420746f6b656e00000000000000000000000000000000000000000000000000602082015250565b60006130c66027836122e0565b91506130d18261306a565b604082019050919050565b600060208201905081810360008301526130f5816130b9565b9050919050565b7f544553543a2062616c616e636520717565727920666f7220746865207a65726f60008201527f2061646472657373000000000000000000000000000000000000000000000000602082015250565b60006131586028836122e0565b9150613163826130fc565b604082019050919050565b600060208201905081810360008301526131878161314b565b9050919050565b7f4e487b7100000000000000000000000000000000000000000000000000000000600052602260045260246000fd5b600060028204905060018216806131d557607f821691505b6020821081036131e8576131e761318e565b5b50919050565b7f7a65726f20726571756573740000000000000000000000000000000000000000600082015250565b6000613224600c836122e0565b915061322f826131ee565b602082019050919050565b6000602082019050818103600083015261325381613217565b9050919050565b7f544553543a20617070726f766520746f2063616c6c6572000000000000000000600082015250565b60006132906017836122e0565b915061329b8261325a565b602082019050919050565b600060208201905081810360008301526132bf81613283565b9050919050565b60006060820190506132db60008301866121a6565b6132e860208301856121a6565b6132f5604083018461253b565b949350505050565b7f526f6c65733a206163636f756e7420616c72656164792068617320726f6c6500600082015250565b6000613333601f836122e0565b915061333e826132fd565b602082019050919050565b6000602082019050818103600083015261336281613326565b9050919050565b7f544553543a206f70657261746f7220717565727920666f72206e6f6e6578697360008201527f74656e7420746f6b656e00000000000000000000000000000000000000000000602082015250565b60006133c5602a836122e0565b91506133d082613369565b604082019050919050565b600060208201905081810360008301526133f4816133b8565b9050919050565b7f544553543a207472616e73666572206f6620746f6b656e20746861742069732060008201527f6e6f74206f776e00000000000000000000000000000000000000000000000000602082015250565b60006134576027836122e0565b9150613462826133fb565b604082019050919050565b600060208201905081810360008301526134868161344a565b9050919050565b7f544553543a207472616e7366657220746f20746865207a65726f20616464726560008201527f7373000000000000000000000000000000000000000000000000000000000000602082015250565b60006134e96022836122e0565b91506134f48261348d565b604082019050919050565b60006020820190508181036000830152613518816134dc565b9050919050565b600061352a82612111565b915061353583612111565b9250827fffffffffffffffffffffffffffffffffffffffffffffffffffffffffffffffff0382111561356a57613569612ce1565b5b828201905092915050565b7f536166654d6174683a206164646974696f6e206f766572666c6f770000000000600082015250565b60006135ab601b836122e0565b91506135b682613575565b602082019050919050565b600060208201905081810360008301526135da8161359e565b9050919050565b60006135ec82612111565b91506135f783612111565b9250817fffffffffffffffffffffffffffffffffffffffffffffffffffffffffffffffff04831182151516156136305761362f612ce1565b5b828202905092915050565b7f4e487b7100000000000000000000000000000000000000000000000000000000600052601260045260246000fd5b600061367582612111565b915061368083612111565b9250826136905761368f61363b565b5b828204905092915050565b7f536166654d6174683a206d756c7469706c69636174696f6e206f766572666c6f60008201527f7700000000000000000000000000000000000000000000000000000000000000602082015250565b60006136f76021836122e0565b91506137028261369b565b604082019050919050565b60006020820190508181036000830152613726816136ea565b9050919050565b7f544553543a206d696e7420746f20746865207a65726f20616464726573730000600082015250565b6000613763601e836122e0565b915061376e8261372d565b602082019050919050565b6000602082019050818103600083015261379281613756565b9050919050565b7f544553543a20746f6b656e20616c7265616479206d696e746564000000000000600082015250565b60006137cf601a836122e0565b91506137da82613799565b602082019050919050565b600060208201905081810360008301526137fe816137c2565b9050919050565b7f526f6c65733a206163636f756e7420697320746865207a65726f20616464726560008201527f7373000000000000000000000000000000000000000000000000000000000000602082015250565b60006138616022836122e0565b915061386c82613805565b604082019050919050565b6000602082019050818103600083015261389081613854565b9050919050565b7f526f6c65733a206163636f756e7420646f6573206e6f74206861766520726f6c60008201527f6500000000000000000000000000000000000000000000000000000000000000602082015250565b60006138f36021836122e0565b91506138fe82613897565b604082019050919050565b60006020820190508181036000830152613922816138e6565b9050919050565b600061393482612111565b915061393f83612111565b92508282101561395257613951612ce1565b5b82820390509291505056fea26469706673582212202bf1e8201fa5fa60a5d01b151a8d3e26dedb7ae0538969976c6ce25e7b75503364736f6c634300080e0033",
  "immutableReferences": {},
  "source": "// SPDX-License-Identifier: MIT\npragma solidity ^0.8.14;\n\ninterface ERC721 {\n    event Transfer(address indexed _from, address indexed _to, uint256 indexed _tokenId);\n    event Approval(address indexed _owner, address indexed _approved, uint256 indexed tokenId);\n    event ApprovalForAll(address indexed _owner, address indexed _operator, bool _approved);\n    function balanceOf(address _owner) external view returns (uint256); //    nft \n    function ownerOf(uint256 _tokenId) external view returns (address); // nft    \n    function safeTransferFrom(address _from, address _to, uint256 _tokenId, bytes memory data) external payable;\n    function safeTransferFrom(address _from, address _to, uint256 _tokenId) external payable; //  to  erc721    \n    function transferFrom(address _from, address _to, uint256 _tokenId) external payable; // nft   nft    \n    function approve(address _approved, uint256 _tokenId) external payable; //   nft   \n    function setApprovalForAll(address _operator, bool _approved) external; // nft     nft       \n    function getApproved(uint256 _tokenId) external view returns (address); //        \n    function isApprovedForAll(address _owner, address _operator) external view returns (bool); // setApprovealForAll    true, false \n}\n\ninterface ERC165 {\n  function supportsInterface(bytes4 interfaceID) external view returns (bool);\n}\n\nlibrary SafeMath {\n\n    function add(uint256 a, uint256 b) internal pure returns (uint256) {\n        uint256 c = a + b;\n        require(c >= a, \"SafeMath: addition overflow\");\n        return c;\n    }\n\n    function sub(uint256 a, uint256 b) internal pure returns (uint256) {\n        return sub(a, b, \"SafeMath: subtraction overflow\");\n    }\n\n    function sub(uint256 a, uint256 b, string memory errorMsg) internal pure returns (uint256) {\n        require(b <= a, errorMsg);\n        return a - b;\n    }\n\n    function mul(uint256 a, uint256 b) internal pure returns (uint256) {\n        if ( a == 0 ) {\n            return 0;\n        }\n        uint256 c = a * b;\n        require(c / a == b, \"SafeMath: multiplication overflow\");\n        return c;\n    }\n}\n\nlibrary Counters {\n\n    using SafeMath for uint256;\n\n    struct Counter {\n        uint256 value;\n    }\n\n    function current(Counter storage counter) internal view returns (uint256) {\n        return counter.value;\n    }\n\n    function increment(Counter storage counter) internal {\n        counter.value += 1;\n    }\n\n    function decrement(Counter storage counter) internal {\n        counter.value = counter.value.sub(1);\n    }\n}\n\nlibrary Roles {\n    struct Role {\n        mapping(address => bool) bearer;\n    }\n\n    function add(Role storage role, address account) internal {\n        require(!has(role, account), \"Roles: account already has role\");\n        role.bearer[account] = true;\n    }\n\n    function remove(Role storage role, address account) internal {\n        require(has(role, account), \"Roles: account does not have role\");\n        role.bearer[account] = false;\n    }\n\n    function has(Role storage role, address account) internal view returns (bool) {\n        require(account != address(0), \"Roles: account is the zero address\");\n        return role.bearer[account];\n    }\n\n}\n\n\ncontract MinterRole {\n    using Roles for Roles.Role;\n\n    event MinterAdded(address indexed account);\n    event MinterRemoved(address indexed account);\n\n    Roles.Role private _minters;\n\n    constructor() {\n        _addMinter(msg.sender);\n    }\n\n    modifier onlyMinter() {\n        require(isMinter(msg.sender), \"MinterRole: caller does not have the Minter role\");\n        _;\n    }\n\n    function isMinter(address account) public view returns (bool) {\n        return _minters.has(account);\n    }\n\n    function addMinter(address account) public onlyMinter {\n        _addMinter(account);\n    }\n\n    function renounceMinter() public {\n        _removeMinter(msg.sender);\n    }\n\n    function _addMinter(address account) internal {\n        _minters.add(account);\n        emit MinterAdded(account);\n    }\n\n    function _removeMinter(address account) internal {\n        _minters.remove(account);\n        emit MinterRemoved(account);\n    }\n}\n\nlibrary String {\n    function uint2str(uint _i) internal pure returns (string memory) {\n        if (_i == 0) {\n            return \"0\";\n        }\n\n        uint j = _i;\n        uint len;\n        while (j != 0) {\n            len++;\n            j /= 10;\n        }\n\n        bytes memory bstr = new bytes(len);\n        uint k = len - 1;\n        while (_i != 0) {\n            bstr[k--] = bytes1(uint8(48 + _i % 10));\n            _i /= 10;\n        }\n        return string(bstr);\n    }\n}\n\ncontract Test is ERC721, MinterRole {\n    using Counters for Counters.Counter;\n    using SafeMath for uint256;\n\n    uint256 private _mintIndexForSale;\n\n    // NFT tokenId   account \n    mapping(uint256 => address) private _tokenOwner;\n\n    // tokenId    account \n    mapping(uint256 => address) private _tokenApprovals;\n\n    // owner   token  \n    mapping(address => Counters.Counter) private _ownedTokensCount;\n\n    // owner  tokenId\n    mapping(address => uint256[]) private _ownedTokens;\n\n    // owner  tokenId index\n    mapping(uint256 => uint256) private _ownedTokenIndexs;    \n\n\n\n    mapping(address => mapping(address => bool)) private _operatorApprovals;\n\n    mapping(address => uint256) private _lastCallBlockNumber;\n    uint256 private _antibotInterval;\n    uint256 private _mintStartBlockNumber;\n    uint256 private _mintLimitPerBlock;\n    uint256 private _mintPrice;\n\n    string baseURI;\n\n    constructor() {\n        _mintIndexForSale = 1;        \n        _mintLimitPerBlock = 275;\n        _mintPrice = 1000000000000000;\n    }\n\n    function getBaseURI() public view returns (string memory) {\n        return baseURI;\n    }\n\n    function setBaseURI(string memory _newBaseURI) public onlyMinter {\n        baseURI = _newBaseURI;\n    }\n\n    function getTokenURI(uint256 tokenId) public view returns (string memory) {\n        require(_exists(tokenId), \"TEST: URI query for nonexistent token\");\n        string memory uri = getBaseURI();\n        if (bytes(uri).length == 0) {\n            return \"\";\n        }\n        return string(abi.encodePacked(uri, \"1\", \".json\"));\n    }\n\n    function getOwnedTokenCount() external view returns(Counters.Counter memory) {\n        return _ownedTokensCount[msg.sender];\n    }\n\n    // _onwer  NFT  \n    function balanceOf(address _owner) external view returns (uint256) {\n        require(_owner != address(0), \"TEST: balance query for the zero address\");\n        return _ownedTokensCount[_owner].current();\n    }\n\n    // tokenId  owner \n    function ownerOf(uint256 _tokenId) external view returns (address) {\n        address owner = _tokenOwner[_tokenId];\n        require(owner != address(0), \"TEST: owner query for nonexistent token\");\n        return owner;\n    }\n\n    //  to  erc721    \n    function safeTransferFrom(address _from, address _to, uint256 _tokenId) external payable {\n        require(_to != address(0), \"TEST: to == address(0)\");\n        this.safeTransferFrom(_from, _to, _tokenId, \"\");\n    } \n\n    function safeTransferFrom(address _from, address _to, uint256 _tokenId, bytes memory _data) external payable {\n        this.transferFrom(_from, _to, _tokenId);\n    }\n\n\n    // nft   nft    \n    function transferFrom(address _from, address _to, uint256 _tokenId) external payable {\n        require(_isApprovedOrOwner(msg.sender, _tokenId), \"TEST: transter caller is not owner nor approved\");\n        _transferFrom(_from, _to, _tokenId);\n    }\n\n    function _transferFrom(address _from, address _to, uint256 _tokenId) internal {\n        require(this.ownerOf(_tokenId) == _from, \"TEST: transfer of token that is not own\");\n        require(_to != address(0), \"TEST: transfer to the zero address\");\n        if(_tokenApprovals[_tokenId] != address(0)) {\n            _tokenApprovals[_tokenId] = address(0);\n        }\n\n        _ownedTokensCount[_from].decrement();\n        _ownedTokensCount[_to].increment();\n        _tokenOwner[_tokenId] = _to;\n\n        emit Transfer(_from, _to, _tokenId);\n    }\n\n    function _isApprovedOrOwner(address sender, uint256 tokenId) internal view returns (bool) {\n        require(_exists(tokenId), \"TEST: operator query for nonexistent token\");\n        address owner = this.ownerOf(tokenId);\n        return sender == owner || this.getApproved(tokenId) == sender || this.isApprovedForAll(owner, sender);\n    }\n\n    //   nft   \n    function approve(address _approved, uint256 _tokenId) external payable {\n        address owner = this.ownerOf(_tokenId);\n        require(_approved != owner, \"TEST: approval to current owner\");\n        address sender = msg.sender;\n        require(owner == sender || this.isApprovedForAll(owner, sender), \"TEST: approved caller is not owner nor approved for all\");\n        _tokenApprovals[_tokenId] = _approved;\n        emit Approval(owner, _approved, _tokenId);\n    } \n\n    // nft     nft       \n    function setApprovalForAll(address _operator, bool _approved) external {\n        address owner = msg.sender;\n        require(_operator != owner, \"TEST: approve to caller\");\n        _operatorApprovals[owner][_operator] = _approved;\n    } \n\n    //        \n    function getApproved(uint256 _tokenId) external view returns (address) {\n        require(_exists(_tokenId), \"TEST: approved query for nonexistent token\");\n        return _tokenApprovals[_tokenId];\n    } \n\n    // setApprovealForAll    true, false \n    function isApprovedForAll(address _owner, address _operator) external view returns (bool) {\n        return _operatorApprovals[_owner][_operator];\n    } \n\n    function _mint(address to, uint256 tokenId) internal {\n        require(to != address(0), \"TEST: mint to the zero address\");\n        require(!_exists(tokenId), \"TEST: token already minted\");\n        _tokenOwner[tokenId] = to;\n        _ownedTokensCount[to].increment();\n        _ownedTokens[to].push(tokenId);\n        _ownedTokenIndexs[tokenId] = _ownedTokens[to].length.sub(1);\n        emit Transfer(address(0), to, tokenId);\n    }\n\n    function _exists(uint256 tokenId) internal view returns (bool) {\n        address owner = _tokenOwner[tokenId];\n        return owner != address(0);\n    }\n\n    \n    function airDropMint(address user, uint256 requestedCount) external onlyMinter {\n        require(requestedCount > 0, \"zero request\");\n        for (uint256 i = 0; i < requestedCount; i++) {\n            _mint(user, _mintIndexForSale);\n            _mintIndexForSale = _mintIndexForSale.add(1);\n        }\n    }\n\n    function withdraw() external onlyMinter {\n        // payable(0x7bfBAEeBED250747f2954656dC5c092Cc3605A7E).transfer(payable(address(this)).balance * 5 / 100);\n        payable(msg.sender).transfer(payable(address(this)).balance);\n    }\n\n    function getTokenIds(address owner) external view returns (uint256[] memory) {\n        return _ownedTokens[owner];\n    }\n\n    function publicMint(uint256 requestedCount) external payable {\n        address sender = msg.sender;\n        require(_lastCallBlockNumber[sender].add(_antibotInterval) < block.number, \"Bot is not allowed\");\n        require(block.number >= _mintStartBlockNumber, \"Not yet started\");\n        require(requestedCount > 0 && requestedCount <= _mintLimitPerBlock, \"Too many requests or zero request\");\n        require(msg.value == _mintPrice.mul(requestedCount), \"Not enough Klay\");\n    \n        for (uint256 i = 0; i < requestedCount; i++) {\n            _mint(sender, _mintIndexForSale);\n            _mintIndexForSale = _mintIndexForSale.add(1);\n        }\n\n        _lastCallBlockNumber[sender] = block.number;\n    }\n\n    function getSender() external view returns (address) {\n        return msg.sender;\n    }\n}\n",
  "sourcePath": "/home/playlinks/github/react/smartContract/contracts/Test.sol",
  "compiler": {
    "name": "solc",
    "version": "0.8.14+commit.80d49f37.Emscripten.clang"
  },
  "schemaVersion": "3.4.7",
  "updatedAt": "2022-06-17T05:58:49.294Z",
  "networkType": "ethereum",
  "devdoc": {
    "kind": "dev",
    "methods": {},
    "version": 1
  },
  "userdoc": {
    "kind": "user",
    "methods": {},
    "version": 1
  }
}